:100000000C942B000C9448000C9448000C9448006D
:100010000C9448000C9448000C9448000C94480040
:100020000C9448000C9448000C9448000C94480030
:100030000C9448000C9448000C9448000C94480020
:100040000C9448000C9448000C9448000C94480010
:100050000C944800C30011241FBECFE5D8E0DEBFDA
:10006000CDBF21E0A0E6B0E001C01D92AF35B207E0
:10007000E1F710E0C6E5D0E004C02297FE010E943F
:10008000CD00C435D107C9F70E9457000C94D100A8
:100090000C940000B89AB99ABA9AC098C19AC29AB8
:1000A000089585BB92BB6BBBC198C19A08950E940D
:1000B0004A008FEF81BB84BB8ABB812C912C5401F9
:1000C000E12CF12C0F2EF6E02F2EF02D0F2EF0E666
:1000D000CF2EF0E0DF2EF02DCFE5D1E00F2EF0EFA8
:1000E0003F2EF02D360160947094C4982FB8779B02
:1000F000FECFC49AC49883E08FB9779BFECF8FB8A8
:10010000779BFECF81E099E089169104A104B104A8
:1001100008F480E08FB9779BFECFC501AA27BB27E3
:100120008FB9779BFECFF6013FB8779BFECF8FB19B
:100130008193EC17FD07C1F7C49A26018701060DCC
:10014000171DF20161912F01C8018E0F9F1F0E94A0
:1001500051004C165D06A9F7FFEFEF0EF11C8FEF73
:10016000881A980AA80AB80A9FEFE916F90609F052
:10017000BCCF12BA15BA1BBA11BA14BA1ABAC198BE
:10018000C298C09AFFCF87B3806B87BB8DB1816562
:100190008DB91EB80895EE0FFF1F0590F491E02D64
:0601A0000994F894FFCF62
:00000001FF
